:020000041000EA
:1000000000B5324B212058609868022188439860DF
:10001000D860186158612E4B002199600221596106
:100020000121F02299502B49196001219960352056
:1000300000F044F80222904214D00621196600F024
:1000400034F8196E01211966002018661A6600F04E
:100050002CF8196E196E196E052000F02FF8012189
:100060000842F9D1002199601B49196000215960AB
:100070001A491B48016001219960EB211966A021F2
:10008000196600F012F800219960164914480160C1
:100090000121996001BC002800D000471248134993
:1000A000086003C880F30888084703B5996A0420EC
:1000B0000142FBD001200142F8D103BD02B5186610
:1000C0001866FFF7F2FF186E186E02BD00000240BE
:1000D000000000180000070000035F00212200005C
:1000E000F4000018222000A00001001008ED00E03C
:1000F00000000000000000000000000074B24E7A12
:1001000000200420F7010010C3010010C5010010F9
:10011000C1010010C1010010C1010010C101001097
:10012000C1010010C1010010C1010010C701001081
:10013000C1010010C1010010C9010010CB01001065
:10014000CD010010CD010010CD010010CD01001037
:10015000CD010010CD010010CD010010CD01001027
:10016000CD010010CD010010CD010010CD01001017
:10017000CD010010CD010010CD010010CD01001007
:10018000CD010010CD010010CD010010CD010010F7
:10019000CD010010CD010010CD010010CD010010E7
:1001A000CD010010CD010010CD010010CD010010D7
:1001B000CD010010CD010010CD010010CD010010C7
:1001C00000BE00BE00BE00BE00BE00BE00F04BF888
:1001D000103800BEF2EB88711C1E0010381E001093
:1001E0003402001090A31AE700202149086006C8D5
:1001F00081F3088810471F48006800282FD10DA4FC
:100200000ECC002902D000F012F8F9E71A491B4A77
:10021000002000E001C19142FCD1194988471949E9
:1002200088471949884700BEFDE701C901C29A42C3
:10023000FBD37047381E0010C00000203C02002095
:10024000B41F00100000042000000420B41F0010A0
:1002500000100420001004200000000070470B482C
:1002600001F00CFB0047EFF30580C0B270470000BF
:1002700008ED00E0000000D0400200200806002049
:10028000651000105D03001051110010575600005A
:1002900006005250ABB36053CC1D00100600525004
:1002A000861C0302DC1D0010060052505422A29D41
:1002B000E81D001005005250DE65F468B41F001000
:1002C000F8B5C0460448054B10B5834203D0044B33
:1002D000002B00D0984710BD3C0200203C020020BB
:1002E0000000000006480749091A8B10C90FC918F9
:1002F00010B5491003D0044B002B00D0984710BD17
:100300003C0200203C0200200000000010B5074C19
:100310002378002B09D1FFF7D5FF054B002B02D026
:10032000044800E000BF0123237010BD40030020FB
:1003300000000000701D0010054B10B5002B03D00D
:100340000449054800E000BFFFF7CCFF10BDC046E0
:100350000000000044030020701D001070B58025CF
:10036000D024AD042E001920240600F013F8656295
:10037000C820666100F0C4FAC820A56100F0C0FA88
:10038000C820656100F0BCFAFA20A561400000F0C9
:10039000B7FAEDE70123D0228340120693629361FE
:1003A000094A83009446402263441968C0004A40C9
:1003B000C02111408022520113431960034B9C4617
:1003C000052360444360704704C001400040014081
:1003D000F8B5CE464746914680B5EFF3108772B622
:1003E000124E3368002BFCD0BFF35F8FCB08C55C87
:1003F0000724C218280001230C409446E0401A004C
:100400000240904603420DD1A34062462B43137035
:10041000BFF35F8F4346336087F310880CBC904670
:100420009946F8BD484600F095FEC0462C0100D024
:100430000021044B044ABFF35F8F02C39342FAD1F9
:100440007047C046000100D0800100D0044A1078F7
:10045000431CDBB2172B00D9102313707047C04622
:1004600080010020024B18688007C00F7047C0460B
:1004700000C0064083680B4810B58446614462445E
:10048000090112019A18591854684B6801209C42BE
:1004900001D802D00020C0B210BD12680B689A4289
:1004A000F9D8F7E7FFFFFF0F40BF0020002170479A
:1004B000F8B557464E464546DE46E0B5434D8146C3
:1004C0008A466A68EFF3108872B61368002BFCD076
:1004D000BFF35F8F2E68B47B002C3ED0670033687B
:1004E0003F19033FDA195378B373002B00D1F3732C
:1004F0000023937053701370A968354A8C4649469F
:10050000A218120162441160514651603149D36012
:1005100091603268D219937053701370737B9B464D
:10052000002B35D022001900B068736898473268F4
:10053000002820D05B4658465B005B44D719033B3C
:10054000B870D118D35C002B00D07B705B460C7068
:1005500073735C451DD0002626E06B68BFF35F8F88
:100560001C6088F31088012040423CBC90469946AC
:10057000A246AB46F8BD5B465B005B44033BD31829
:100580009C70D119D25D002A00D05A705B460B7066
:1005900074734A465346287D00F0CAFA061EDAD024
:1005A0002100286800F020FDEB686A681B19013BF8
:1005B0001B78BFF35F8F0021116088F31088002043
:1005C000002ED2D118022043CFE7C046840100207C
:1005D000FFFFFF0FA9040010F8B5574645464E46E9
:1005E000DE46E0B599460CAB19780DAB1B780500DB
:1005F00090469A460768002912D1BE7B002E45D04E
:1006000074003B68A419033C1B195A783100BA7373
:10061000002A00D1FA7300229A705A701A7003E00F
:100620000E004C006418033C2C4B00229C46AB6827
:1006300061449C464346090161440B604B464B6054
:100640000A9B8B600B9BCB603B681B199A705A709E
:100650001A707B7B9B46002B2CD032005946B86821
:100660007B6898473A68002817D05B4658465B007D
:100670005B441419033BA070D118D35C002B00D04D
:1006800063705B460E707B73B34514D030003CBC86
:1006900090469946A246AB46F8BD5B465B005B447C
:1006A000033BD3189E701119125D002A00D05A70B6
:1006B0005B460B707E7342464B46287D00F038FA4D
:1006C000041E06D05346002B03D13100286800F0E9
:1006D0008BFC0E9B002BD9D01C70D7E7FFFFFF0FC0
:1006E000F0B5DE464E46574645460023E0B58DB090
:1006F0000A936B4B8200D3580B90994600239B467C
:100700004B46079300F0B4F9079C06000F0062689F
:10071000EFF3108572B61368002BFCD0220007940B
:10072000BFF35F8F2468637B9946002B67D0926884
:100730005C4B90464B441B01984443461A685B68E7
:1007400010001900801BB94100295FDD0B9800F0F3
:10075000EFF900230026984600279A46079C636815
:10076000BFF35F8F5A461A6085F310885346002BFB
:1007700008D10028C6D10DB03CBC90469946A2468F
:10078000AB46F0BD0A9B414618024B461843D04782
:10079000089009916268EFF3108572B61368002B18
:1007A000FCD00794BFF35F8F0899099A002A48DBB1
:1007B000114303D0079B1B69002B5DD1079B1B686E
:1007C000DA7B002A07D051008A1819688C464946FE
:1007D0006244033A51704A46DA734B46079A013B2A
:1007E000D168CA5C0132CA545B46079A13615368E8
:1007F000BFF35F8F5A461A6085F3108882E70023A3
:100800000026984600279A460020A7E7002901D134
:1008100000289BD10021200000F048FB43461E68C1
:100820005F689B68079A9A464346DB689846D36898
:100830004B44013B1B780A931B02034313610020C6
:100840008CE72369002BB9D033003C005B1A94413C
:100850001A002300A74219D89F421BD05946049181
:100860000121039149460291414601915146079861
:100870000091FFF7B1FEB7E700F0FAF8089A099B7C
:1008800006000F0092197B419942E5D9012252429C
:10089000D317E3E79642E1D901225242D317DDE7AD
:1008A000E0030020FFFFFF0F10B5104C6368002B22
:1008B00000D010BD23000E4A1021206800F014FA69
:1008C000032000F0C9F8032000F0A4F9032009492F
:1008D00000F0E8F8FFF7BAFD074B9C46032360449D
:1008E0002375064B80006060DC60E2E78401002035
:1008F00075040010E106001040000034E003002001
:10090000F8B5040000F0B4F8FA2206000F00200049
:1009100000230021920001F075F88019794104004C
:100920000D008F422DD82AD006267642F7173619A9
:100930006F41AF422CD90026002700F099F8320011
:100940003B00121A8B41002B07DC04D02900200049
:1009500000F098F8F8BD002AF8D030003900FFF711
:10096000A7FD0028F2DB38000C4A536A984204D8ED
:10097000916A8E42EAD99842E8D120BFF5E78642D3
:10098000D2D901246442E51707267642F717D4E747
:10099000AF42D2D1A642CED8CFE7C04600400540F4
:1009A000F0B5D6464F464646C0B5EFF305833F2225
:1009B000134018001038EFF3108C72B6204D2A68DF
:1009C000002AFCD0BFF35F8F0122110081401D4C33
:1009D000884661631C4917000E788A463100C14081
:1009E0000F400A4215D019498200646A51588C425E
:1009F00019D3174BD25843469E4353461E70BFF33C
:100A00005F8F00232B608CF31088002A06D090475C
:100A100004E0BFF35F8F2F608CF310881CBC9046FE
:100A20009946A246F0BD0B4A9B00904643441A6883
:100A30001A60BFF35F8F00232B608CF31088EDE703
:100A4000280100D00040054002040020F0030020EF
:100A50005C030020D03F054010B50100024A034866
:100A6000FFF7B6FC10BDC046701D0010000400204A
:100A7000034B596A0A00986A596A8A42FAD1704748
:100A800000400540064A536A9942FCD807D1044BFE
:100A900002E05A6A914202D19A6A8242F9D37047BF
:100AA0000040054070B504000D00EFF3108672B6EB
:100AB0001A4A1368002BFCD0BFF35F8F002D1BD0A8
:100AC000200000F02DFD164981420AD0200000F0E0
:100AD0002FFD0121200000F011FD0123A340114A48
:100AE0001360114BA400E550BFF35F8F00220B4B46
:100AF0001A6086F3108870BD0B4BA200D5500122FE
:100B0000A2400A4920000B7893430B70044900F07F
:100B100039FD0021200000F0F1FCE5E7280100D0BC
:100B2000A1090010386005405C0300200204002089
:100B3000F0B54F46D6464646C0B50700304C616A10
:100B40000D00A66A616AA942FAD18B4208D805D085
:100B500001201CBC90469946A246F0BDB242F7D98E
:100B6000EFF3108972B6274801680029FCD0BFF363
:100B70005F8F01252449BD408C460978204C0E002A
:100B80002E438846F1B28A46614650460870391DA8
:100B90001E48890065630A51B9000B50216A002084
:100BA000294219D0616A0800A66A616A8142FAD1B5
:100BB0008B4219D801D1B24216D8C2451DD0104B74
:100BC0001F201D625D6301230740BB40104A1E3891
:100BD0001360634642461A70BFF35F8F0022094BD1
:100BE0001A6089F31088B4E70020BFF35F8F0022FA
:100BF000044B1A6089F31088ABE70120ECE7C0468C
:100C000000400540280100D002040020F00300202D
:100C100080E200E010B5EFF3108472B60A490B6869
:100C2000002BFCD0BFF35F8F01238340074A0848A5
:100C3000136202789A430270BFF35F8F00230B6048
:100C400084F3108810BDC046280100D00040054044
:100C500002040020024B9C466144890001607047F9
:100C60004000003410B50400FFF7F0FB0100200045
:100C7000FFF7F0FFFF232371BFF35F8F10BDC04666
:100C800070B505000E001400002924D0002A24D0DD
:100C900080686B689847296800280ED063001B198C
:100CA0007200033B9219CB18033A9E7088188A5C35
:100CB000002A14D1047030000EE073009B1962000A
:100CC000033B1219CB18033A9C7088188A5C002ADF
:100CD00000D05A700670200070BD0800FCE75A7002
:100CE00004703000F8E7C04630B583600023CCB212
:100CF00043730133047342608373C4730D0000684F
:100D0000012C06D9421C0133DBB2137003329C4222
:100D1000F9D1FF2129404B0059180023401803380E
:100D2000437030BDF8B5CE46474606000C0080B58E
:100D3000002907D04D0003686D18033D5A195778F4
:100D4000002F04D120000CBC90469946F8BD7900D4
:100D5000C919033988464344597889460021597096
:100D6000517073683A002100806898473368002802
:100D700014D042469A18947059195B5D002B00D02C
:100D800053700F70270049463000FFF7CBFF390042
:100D900002003000FFF774FF0400D3E742464146EB
:100DA0005D19AF709A185B5C002B00D06B701470EB
:100DB000E9E7C046F0B557464546DE464E46E0B543
:100DC0000D006B0001685B19DF1E0400C85D83B075
:100DD0000192CA1900284CD043001B18033BCB18C2
:100DE0005E78B446002E16D1019E002E3ED0E67BE2
:100DF000002E04D073009B19CB18033B5D70E57384
:100E000000282FD10023537003B03CBC9046994674
:100E1000A246AB46F0BD72006244033A89184A7894
:100E2000904600224A7091465A700100320020001C
:100E3000FFF726FF43468246002B07D05B00216860
:100E40004344033BCB185A78002A16D142465146F8
:100E50002000FFF715FF2168019BCA19002BC6D19E
:100E60000028CFD043001B18033BCB1800219970FA
:100E7000C8E7019B002BBAD1C4E7500080180338A3
:100E80000918487883464846487058704146200003
:100E9000FFF7F6FE594680462000FFF743FF414624
:100EA00002002000FFF7ECFE8046CFE7F0B54E468B
:100EB0004546DE465746E0B5467B040075000068AF
:100EC000AD19033D83B00191415D421900294ED017
:100ED0004B005B18033BC3185F78BC46002F18D14A
:100EE000019D002D40D0E57B002D04D06B005B19E7
:100EF000C318033B5E70E673002931D10023300034
:100F00005370617303B03CBC90469946A246AB4611
:100F1000F0BD7A006244033A80184278934600227A
:100F2000427091465A7020003A00FFF7A9FE5B46D6
:100F30008046002B07D05B0021685B44033BCB1845
:100F40005A78002A17D15A4641462000FFF798FEEA
:100F5000019B010020684219002BC4D10029CDD08B
:100F60004B005B18033BC31800209870C6E7019B39
:100F7000002BB8D1C2E75000801803380918487810
:100F8000824648464870587059462000FFF778FE60
:100F900053468346002B07D05B0021685344033B34
:100FA000CB185A78002A06D1594652462000FFF73E
:100FB00067FE8346C7E75000801803380918484683
:100FC0004F784870587051462000FFF759FE39009D
:100FD00081462000FFF7A6FE494602002000FFF7E9
:100FE0004FFE8246E0E7C04670B5040000292CD0D1
:100FF000437B8B422ED005684800401803382818E0
:101000008278002A21D053009B18033BEA5CEE183B
:101010008A4202D11BE0002A08D053009B18033BF0
:10102000EB185A788A42F6D142785A70002301228E
:10103000837043702000FFF7BDFE617B020020003B
:10104000FFF71EFE6073012000E0002070BD4378B2
:101050003370EBE701221900FFF7ACFE607301204B
:10106000F4E7C0462B4B2C4A70B51A602B4A2C4B28
:101070002C491A6010008B689843FBD12A4C2B4BEB
:101080009C4209D2013B1D1BAD080135AD002D1955
:1010900008CC9847AC42FBD100F07AF8244A204BA8
:1010A0001A60204A9368DB018033FBD14022214B38
:1010B000214C9A675A671A67DA66204B9C420BD21A
:1010C000013B1D1BED080135ED002D1920000834F2
:1010D000FFF7C8FDAC42F9D1194C1A4DA168C022E6
:1010E000280000F0F9FCA560FFF7A2F900F082FBF0
:1010F000FFF7DAFB144C154B9C4209D2013B1D1B38
:10110000AD080135AD002D1908CC9847A542FBD19B
:1011100070BDC04600E00040BFCDFFFFFE7F3C0039
:1011200000F0004000C000402802002038020020EB
:10113000FFFFFF0100F001402002002028020020F4
:1011400000ED00E000000020380200203C020020FA
:1011500000BEFDE70FB400B5084883B000F092FD73
:10116000049B002B07D005A91800019100F066FB35
:10117000034800F087FD00BEFDE7C046941D001047
:10118000A41D001010B50148FFF7E4FFA81D0010D2
:1011900030B50C2083B000F06BF9FFF763F900283D
:1011A0000ED09A4B9A4A1A605A609A60DA601A61B5
:1011B0005A619A61DA611A62964A5A6203B030BD86
:1011C000954CA06700F05CF90122944B1A60636CA7
:1011D000012BFCD10322924B1A608F4A936B012B97
:1011E000FCD1C0228F4B92011A608F4B8F491A603D
:1011F00010008B689843031EFAD1022401218C4A07
:101200008C480633009400F04FF905238A4A0121E7
:101210008A48009400F048F9894B5A68FF2A02D89E
:10122000802252005A608022784C7D4B2169120145
:10123000834D1A60002905D0606900F04DFB013034
:101240000138FDD1E0217E4B02201A681140802236
:1012500052012A431160196848400321014011607E
:1012600004219A681142FCD08022802192012A43F5
:1012700009011160802252005A60724B2361724B47
:101280005968FF2900D85A6003226F48634B012137
:101290001A60020093681942FCD0E02513681D40D3
:1012A00080235B0103431D6012684A400321114003
:1012B00019600221644A93681942FCD0802380217E
:1012C0009B010343090119608021604B4900516073
:1012D00063615F4B5A68FF2A00D8596080225D4BDA
:1012E000E16912015A4D1A60002905D0606900F0C9
:1012F000F3FA01300138FDD1E02255490B681A405C
:1013000080235B012B431A60802380229B012B43A7
:1013100012011A6080223E4B52004A60E3614E4B3C
:101320005968FF2900D85A6080224C4B216A12016B
:10133000494D1A60002905D0606900F0CDFA0130EE
:101340000138FDD1E02244490B681A4080235B013B
:101350002B431A60802380229B012B4312011A60C9
:10136000802380225B004B60294BD20223623C4BDE
:101370005968914200D25A6080223A4B616A120148
:10138000374D1A60002905D0606900F0A5FA0130D8
:101390000138FDD1E02232490B681A4080235B01FD
:1013A0002B431A60802380229B012B4312011A6079
:1013B0008023DB024B60174B63622B4B5A68FF2A7A
:1013C00002D8802252005A608022284BA169120163
:1013D000254D1A60002905D0606900F07DFA0130C2
:1013E0000138FDD1E02220490B681A4080235B01BF
:1013F0002B431A60802380229B012B4312011A6029
:1014000080235B004B60114BA361D7E66C03002087
:10141000006CDC021BB70000008000403CB00040C4
:1014200030B0004000E0004000F0004000C000404C
:10143000002F68590080024000389C1C00C0024008
:1014400030800040001BB7003C80004040597307CB
:101450005480004054B000406080004060B00040C4
:101460006C8000406CB000404880004048B00040B4
:101470008023024A9B000343D362704700800540EB
:10148000AA23064A1B0113602F230549D360054B8D
:1014900019605368002BFCDA7047C04600400240D8
:1014A00000B0FA0000600240F8B51E0001235B4264
:1014B000436000230400836001600C20170000F0EB
:1014C0000BFA4101091A8D01691AC900091889012D
:1014D000380000F001FAC021231D8901194321239E
:1014E000A0600B602268002AFCDA069B36041B030E
:1014F0001E430823E6600B60F8BDC046012383400D
:10150000002904D0034A1360034A13607047034A5A
:101510001360FBE780E200E000E100E080E100E032
:10152000024B10309B688000C058704700ED00E00F
:1015300070B50D00EFF3108672B60F4A1368002BDA
:10154000FCD0BFF35F8F0D4B10309B6884001B599C
:101550000B4A934203D09D4201D0FFF713FE074B85
:101560009B681D51BFF35F8FBFF35F8F0022024B5B
:101570001A6086F3108870BD240100D000ED00E0F1
:10158000CD010010F0B5DE4657464E464546E0B563
:101590000C0083B0EFF3108A72B65B4A1368002B1D
:1015A000FCD0BFF35F8F1022914681444A46574BCF
:1015B00096009B689D59564B98469D4205D0A54282
:1015C00016D0544FEB1B2F2B14D9504B9B689D51B9
:1015D000BFF35F8FBFF35F8F00224B4B1A608AF31C
:1015E000108803B03CBC90469946A246AB46F0BD7D
:1015F0001D00EAE7012383409B465A46464B1B6881
:101600001A4000925A46454B1A60BFF35F8FFEF7AF
:101610002AFE0190002803D0814501D0FFF7B2FDDA
:1016200001232A009A431300DB1B5B4142495943C3
:10163000090D93689C4208D15BE043001B189B0096
:10164000FB189868A04211D01A00062010560028F6
:10165000F3DA009B002B05D05A46314B1A602E4B13
:101660001A60B2E75A462D4B1A60AEE706201856AC
:10167000002822DB4200111889007C188846A168E6
:101680009960E179D971062161569971A1797F2913
:101690001FD8A488F91A6405241544440919E024C4
:1016A0000905490D24022143998012181D4B92000F
:1016B000BF181A781870BA71CBE7019800280BD1BF
:1016C000FF30907118489080164A10781170987108
:1016D000BFE7BD210902E7E7144A1549D21A083AC3
:1016E0005002400D01439980124952080A43DA80A2
:1016F000AFE70620105613000028BBDA019A002A33
:10170000EAD14546E0E7C046240100D000ED00E004
:10171000CD010010AC01002000E100E080E100E01C
:1017200080E200E00104002000BDFFFFE601002090
:1017300000F0FFFF00F8FFFFAAAA0000F8B501259E
:1017400004000543FEF78FFD0200EFF3108672B62A
:1017500021490B68002BFCD0BFF35F8F1F4920008D
:10176000401A4041224B43431B0D1D48920087689D
:101770005BB2BF58AF421CD006228A569A421CD098
:1017800012228A569A4222D01E228A569A4220D08B
:101790002A228A5603209A4210D0124A11781370D6
:1017A000A171BFF35F8F00220B4B1A6086F3108884
:1017B000F8BD81680C488850EFE7002042001218FD
:1017C00092008918FF228A71084A8A80E5E7012081
:1017D000F4E70220F2E7C046240100D0AC0100206B
:1017E00000ED00E001040020CD01001000BDFFFF6E
:1017F000AAAA0000F0B500220324FF2780262000BB
:101800003D00094B11009C461040C0008540A1439B
:1018100061440B680132AB43350085402B430B60BC
:10182000202AECD1F0BDC04600E400E010B500284D
:1018300000D110BD00F018FAFBE7C04610B5094A08
:101840000300146884B0002C08D0012200910648DF
:10185000524203A9A047012004B010BD00F012FAC3
:101860000020F9E7DC0300202D18001001480421B6
:10187000014B1847000200209D180010142310B5DA
:101880000100188804331B88984710BD162310B533
:101890000100188802331B88984710BDF0B5C64672
:1018A00000B5002916D014230400012598461827F6
:1018B000890046184346216818883B88984701C428
:1018C000431E984140420540A642F3D1280004BC83
:1018D0009046F0BD0125F9E7134A936F9B0813D298
:1018E00010665166002905D0FFE7FFE7FFE7516F5B
:1018F000106F704704B5002801D00020C04300F0ED
:101900001FFA002104BDC046936F5B08FDD3F0B5FC
:10191000946ED56E576F166FFFF7E2FF9466D5662B
:1019200057671667F0BD0000000000D0132370B5A4
:101930001D78012D10D00BDD2448FFF7A7FF244CA4
:1019400001008022200000F0C7F8022D01D070BDF8
:101950001F4C204AA264FAE72E001D4C1D4AA30822
:101960005B421E401D422FD0330022602020B10078
:101970006118801B0A604A608A60CA600A614A6115
:101980008A61CA610A624A628A62CA620A634A63F7
:101990008A63CA630A644A648A64CA640A654A65D7
:1019A0008A65CA650A664A668A66CA660A674A67B7
:1019B0004008102803D18A67CA67A264C7E71E33AC
:1019C0009B00E250A264C2E70023CFE7534400002B
:1019D00004040020D919001007B5604601880A0ADE
:1019E0000230DF2AFAD1C9B2820804D302884088C3
:1019F0000004104300E00068014A5050039007BD06
:101A00000404002051434343C9188C46110C83B28F
:101A10004B4310B4040C614392B280B25043624312
:101A20001C041B0C001910BC59411304120CC018E3
:101A30005141614470470000132310B512481C78CF
:101A4000FFF724FF0100012C0AD003DD80220F489C
:101A500000F042F80E48FFF711FF0E4B186010BD62
:101A60000A4C5422200000F037F80B4B6365A36545
:101A7000E36523666366A366E36623676367A3671C
:101A8000E3672362E361E5E75346000004050020B5
:101A90004C330000040600209D1A001007B5604674
:101AA00001880A0A0230DF2AFAD1C9B2820804D3B7
:101AB000028840880004104300E00068014A50504A
:101AC000039007BD0405002001480421014B18477D
:101AD000100200209D180010014B5B6818470000A1
:101AE00010020020F8B54746CE460D0080B516001E
:101AF0000700002A20DD4B1E98461A4B00240020C8
:101B00009946002C2BD043461B5D0D3B5A42534156
:101B1000DBB22A5D0A2A13D00134A642F1DC8642E8
:101B200003DD311A3B6828189847AD19013D2B7821
:101B30000D3B5A4253413B740CBC90469946F8BD4C
:101B4000002BE9D1A04203DA211A3B6828189847F4
:101B5000484602213B68013498472000DDE73B7C82
:101B6000D7E7C046181E0010F0B557464546DE467A
:101B70004E46D023E0B51B061C68374B83B00700E8
:101B80000D00180001A990469A4600F0E1F8814640
:101B9000002807D1019B9C4204D0504600F0E0F899
:101BA000012399466B1C03D1380000F089F8050029
:101BB0002A4B1C68002C2FD00A23294E9B4602E09A
:101BC000E468002C28D02268002AF9D03368002B62
:101BD00001D0A342F4D1637C002B2AD02A00390023
:101BE0002000FFF77FFF4346002BE9D06B465A46A3
:101BF0001A71637C002B20D0237C002B26D001217E
:101C0000236801A898476B461B790D3B5A42534104
:101C10002374E468002CD6D14B46002B12D1681EE9
:101C20008541E8B203B03CBC90469946A246AB461B
:101C3000F0BD290038009047D5E70121236801A8AD
:101C40009847BDE7504600F073F8E8E702210548E1
:101C500023689847D7E7C04620020020D40300201D
:101C6000D8030020181E001010B582B06B46040087
:101C70000022D81D01210470FFF776FF200002B07A
:101C800010BDC04670B5040000F01AF80122010032
:101C900005002000FFF768FF084B1C68002C06D0E9
:101CA0006368002B05D09847E468002CF8D1280021
:101CB00070BDE468002CF3D1F9E7C046D4030020DE
:101CC00010B5830727D00378002B26D0030003210B
:101CD00002E01A78002A1CD001330B42F9D11968AE
:101CE0000F4A104C8A188A4322420FD104331968D4
:101CF0000B4A8A188A43224208D104331968084AD9
:101D00008A188A432242F1D000E001331A78002A6F
:101D1000FBD1181A10BD0300E1E70020FAE7C04626
:101D2000FFFEFEFE80808080F8B5C0460000000007
:101D300001B40248844601BC604700BF5501002041
:101D400001B40248844601BC604700BF7D01002009
:101D500001B40248844601BC604700BF0D01002069
:101D600001B40248844601BC604700BFC1000020A6
:101D7000486172647761726520616C61726D2025C3
:101D80006420616C726561647920636C61696D6562
:101D9000640000000A2A2A2A2050414E4943202A82
:101DA0002A2A0A000A0000004861726420617373E5
:101DB0006572740052656C6561736500626F6F7463
:101DC000325F77323571303830000000312E312EDD
:101DD000320000007069636F000000004A44426CEA
:101DE000696E6B3200000000417567203136203289
:101DF0003032310006005250BBFF3CB6D41D0010FB
:101E000006005250E182887FBC1D0010060052502F
:0C1E1000D3F07542B41D00100D0A000054
:101E1C00B4020010A80200109C020010F41D001067
:0C1E2C0090020010001E00100C1E0010A0
:101E380010B502680024EFF3108172B61368002B06
:101E4800FCD0BFF35F8F03797F2B0BD80368BFF3F8
:101E58005F8F1C6081F3108820BF0268EFF3108148
:101E680072B6EBE7D0231B061B6803710368BFF348
:101E78005F8F00221A6081F3108810BD030010B52F
:101E88000068EFF3108472B60268002AFCD0BFF332
:101E98005F8F04229A56002A0BDB00290FD00020FE
:101EA8000A601B68BFF35F8F00221A6084F31088F2
:101EB80010BDD0221206126801201A71F1E7002025
:101EC800EFE7C0460268EFF3108172B61368002B83
:101ED800FCD0BFF35F8FFF23037140BF0368BFF3DC
:101EE8005F8F00221A6081F3108870477047C046E0
:101EF800100000009C0100200000000040020020AB
:101F0800940300200000000000000000A40300204B
:101F180000000000000000001000000000000000A9
:101F280000000100000000000000000000000200A6
:101F38000000000000000000000003000000000096
:101F4800000000000000FF000000000000B5486825
:101F580001318E460047704609380149884700BD5F
:101F68003D17001000000000000000000000000005
:101F7800503300004C33000054330000523300004B
:101F88004D5300004D43000053340000433400001B
:101F98000000000000000000C91A00106D180010B1
:0C1FA8002D190010391A00103903001028
:04000005100001E9FD
:00000001FF
